:020000040800F2
:1000000050040020F97500089D0100089F010008B8
:10001000A1010008A3010008A501000800000000DC
:10002000000000000000000000000000A701000820
:10003000A901000800000000AB010008AD010008A4
:10004000397600083D7600084176000845760008BC
:10005000497600084D76000867080008BD0B0008C7
:10006000E90F000831120008711B000865760008CE
:10007000697600086D7600087176000875760008CC
:10008000797600087D76000881760008857600087C
:10009000897600088D7600089176000845360008BC
:1000A000997600089D760008A1760008A5760008DC
:1000B000AF010008A9060008BD070008B5760008D2
:1000C000B9760008BD760008C1760008C57600083C
:1000D000C9760008CD760008D1760008D5760008EC
:1000E000D9760008DD760008E1760008E57600089C
:1000F000E9760008ED760008F1760008F57600084C
:10010000F9760008FD760008290500080577000843
:10011000097700080D7700081177000815770008A7
:10012000197700081D770008217700082577000857
:10013000297700082D770008317700083577000807
:10014000397700083D7700084177000845770008B7
:10015000497700084D770008517700085577000867
:10016000597700085D770008617700086577000817
:10017000697700086D7700087177000875770008C7
:10018000797700087D770008817700088577000877
:10019000897700088D770008917700087047FEE79F
:1001A000FEE7FEE7FEE7704770477047704780B58F
:1001B00002215FF0804004F04AFA002800F09480A9
:1001C00002215FF0804004F05BFADFF884090078D8
:1001D000DFF880190870DFF880090078002810D057
:1001E000DFF8780904F0DEF8DFF874190880DFF82A
:1001F0007009008810F56161DFF8600904F0F0F91A
:100200000AE00021DFF8540904F0CAF84FF46161F4
:10021000DFF8480904F0E4F9DFF84809007801281C
:1002200062D1DFF84409008801285DD1DFF8200998
:100230000078002808D0022826D015D304283ED004
:1002400032D3052846D04FE0DFF820090088002887
:1002500004D00821DFF8180904F078FA1021DFF83B
:10026000100904F073FA3FE00121DFF8040904F0FB
:100270006DFADFF8F8080088002804D02021DFF8A4
:10028000F00804F063FA2FE0DFF8E00800880028A7
:1002900004D00221DFF8D80804F058FA0421DFF86E
:1002A000D00804F053FA1FE00121DFF8C40804F07D
:1002B0004DFA0221DFF8B80804F048FA14E00421EE
:1002C000DFF8AC0804F042FA0821DFF8A40804F0D3
:1002D0003DFA09E01021DFF8980804F037FA2021F0
:1002E000DFF88C0804F032FA04215FF0804004F05B
:1002F000AEF9002800F0018104215FF0804004F095
:10030000BFF9DFF85408007800280CD00021DFF88E
:100310004C0804F045F8DFF85C080188DFF83C0879
:1003200004F060F912E0DFF8340804F03BF8DFF87D
:1003300030180880DFF828080088DFF838180988A6
:1003400011FA80F1DFF8140804F04CF9DFF82808FE
:100350000078DFF828180870DFF81C0800780028FB
:100360000AD002284AD0C0F08880042825D065D35E
:10037000052800F0A280C0E0DFF80408007800281B
:100380000AD0DFF800080078002805D04FF400619B
:10039000DFF8F40704F0DAF9DFF8F0070078002856
:1003A0000AD0DFF8E0070078002805D04FF480512C
:1003B000DFF8D40704F0CAF99FE0DFF8D40700782B
:1003C00000280AD0DFF8BC070078002805D04FF4D9
:1003D0008061DFF8B40704F0B9F9DFF8B8070078F6
:1003E00000280AD0DFF89C070078002805D04FF4D9
:1003F0000061DFF8940704F0A9F97EE0DFF89807C0
:10040000007800280AD0DFF87C070078002805D0A3
:100410004FF48061DFF8700704F098F9DFF87C078B
:100420000078002809D0DFF85C070078002804D0A5
:100430008021DFF83C0704F089F95EE0DFF860070F
:100440000078002809D0DFF83C070078002804D0A5
:100450004021DFF81C0704F079F9DFF8480700783D
:10046000002809D0DFF81C070078002804D080217C
:10047000DFF8FC0604F06AF93FE0DFF82C070078AB
:1004800000280AD0DFF8FC060078002805D04FF4D9
:100490000051DFF8F40604F059F9DFF8100700788E
:1004A000002809D0DFF8DC060078002804D04021BD
:1004B000DFF8BC0604F04AF91FE0DFF8F406007824
:1004C00000280AD0DFF8BC060078002805D04FF4D9
:1004D0008051DFF8B40604F039F9DFF8D806007867
:1004E00000280AD0DFF89C060078002805D04FF4D9
:1004F0000051DFF8940604F029F908215FF08040EC
:1005000004F0A5F800280ED008215FF0804004F028
:10051000B7F8DFF8A4060078002804D00821DFF837
:10052000F80B04F013F901BD80B50221DFF82C06A9
:1005300004F08DF8002853D00221DFF8200604F0E3
:100540009FF8DFF810060078002808D002281CD099
:1005500010D304282FD023D3052837D040E008211A
:10056000DFF80C0604F0F4F81021DFF8040604F0BC
:10057000EFF835E02021DFF8F80504F0E9F8012173
:10058000DFF8EC0504F0E4F82AE00221DFF8E005EA
:1005900004F0DEF80421DFF8D80504F0D9F81FE0F4
:1005A0000121DFF8CC0504F0D3F80221DFF8C00503
:1005B00004F0CEF814E00421DFF8B40504F0C8F824
:1005C0000821DFF8AC0504F0C3F809E02021DFF8CA
:1005D000A00504F0BDF81021DFF8940504F0B8F888
:1005E0000421DFF8780504F032F800285BD0DFF84A
:1005F0008C050078002808D0022820D036D30428A3
:1006000010D028D305283DD048E04FF40061DFF832
:10061000780504F09DF84FF48051DFF86C0504F084
:1006200097F83BE04FF40061DFF85C0504F090F8C8
:100630004FF48061DFF8500504F08AF82EE04FF4A3
:100640008061DFF8440504F083F88021DFF820059D
:1006500004F07EF822E04021DFF8140504F078F879
:100660008021DFF80C0504F073F817E04FF4005117
:10067000DFF8140504F06CF84021DFF8F40404F00E
:1006800067F80BE04FF48051DFF8FC0404F060F8E9
:100690004FF40051DFF8F00404F05AF80421DFF8B9
:1006A000BC0403F0EDFF01BD80B50221DFF8240991
:1006B00003F0CDFF00285AD00221DFF8180903F01B
:1006C000DFFFDFF814090078DFF810190870DFF891
:1006D0001009007800283ED0DFF8FC0800780028D8
:1006E00008D002281ED006D304281DD01BD305280D
:1006F00031D030E02FE0DFF8EC080088002805D08A
:100700004FF40041DFF8680404F020F8DFF8D40863
:100710000088002805D04FF48051DFF8540404F01D
:1007200015F818E017E016E0DFF8B8080088002890
:1007300005D04FF48041DFF8380404F007F8DFF803
:10074000A4080088002805D04FF40051DFF82004E9
:1007500003F0FCFFFFE70021DFF8C00903F020FEF3
:100760004FF4E161DFF8B40903F03AFF25E004211A
:10077000DFF8600803F06BFF002805D00421DFF8E4
:10078000540803F07DFF18E00821DFF8480803F063
:100790005EFF002805D00821DFF8380803F070FF5D
:1007A0000BE01021DFF82C0803F06AFFDFF8700976
:1007B0000088401CDFF86819088001BD80B502215F
:1007C000DFF8580903F043FF00282CD00221DFF89E
:1007D0004C0903F055FFDFF804080078002808D022
:1007E000022812D006D3042811D00FD3052819D01F
:1007F00038E037E04FF40041DD4803F0A9FF4FF443
:100800008051DB4803F0A4FF2CE02BE02AE04FF4FA
:100810008041D74803F09CFF4FF40051D44803F0C7
:1008200097FF1FE01EE00421DFF8F00803F00FFF40
:10083000002805D00421DFF8E40803F021FF11E0CF
:100840000821DFF8D80803F002FF002805D00821AE
:10085000DFF8C80803F014FF04E01021DFF8BC083B
:1008600003F00EFF01BD80B5012003F0E5FF002875
:1008700000F06C815FF0804003F094FDDFF8A41875
:10088000088000215FF0804003F08AFD0121DFF83D
:10089000980803F04EFF002800F05581DFF88C081F
:1008A0000068DFF88C1808600020DFF88018086006
:1008B0000821DFF8640803F04BFFDFF87808DFF861
:1008C000781809784FF4C87202FB0100DFF86C1841
:1008D0000988282202FB01000069012806D1DFF8FF
:1008E00060080068401CDFF8581808600120DFF835
:1008F00054180870DFF850080088401CDFF84818CA
:100900000880DFF844080088192840F0E780DFF805
:100910003C080088DFF838180880DFF834080088C1
:1009200080B2000ADFF82C180870DFF82008008871
:10093000DFF81C180880DFF818080088DFF818189E
:100940000870DFF818080088DFF804180880DFF85E
:100950000008008880B2000ADFF804180870DFF889
:10096000FC070088DFF8E8170880DFF8E407008854
:10097000DFF8F0170870DFF8F0070088DFF8D0170D
:100980000880DFF8CC07008880B2000ADFF8DC17A7
:100990000870DFF8D4070088DFF8B4170880DFF8A4
:1009A000B0070088DFF8C8170870DFF8C8070088AC
:1009B000DFF89C170880DFF89807008880B2000AEB
:1009C000DFF8B4170870DFF8AC070088DFF880178D
:1009D0000880DFF87C070088DFF8A0170870DFF8D0
:1009E000A00704F099F9DFF89C170870DFF8940766
:1009F0000078002805D0DFF88C070078DFF888172A
:100A00000870DFF87C0704F08FF9DFF880170870B2
:100A1000DFF878070078002805D0DFF87007007845
:100A2000DFF86C170870DFF8580704F084F9DFF876
:100A300064170870DFF85C070078002805D0DFF83D
:100A400054070078DFF8501708700020DFF84C17C3
:100A500048720020DFF8441708720820DFF83C17BE
:100A600088721020DFF834170860DFF8E806007895
:100A7000DFF82817C872DFF8E0060078DFF81C17E7
:100A80000873DFF8DC060078DFF810174873DFF82A
:100A9000D4060078DFF804178873DFF8D0060078F2
:100AA000DFF8F816C873DFF8C8060078DFF8EC1630
:100AB0000874DFF8C4060078DFF8E0164874DFF841
:100AC000BC060078DFF8D4168874DFF8D016DFF89B
:100AD000B00604F004F8DFF8C8160870DFF8C406A2
:100AE0000088DFF8C4160988884203D201201A4919
:100AF000087002E0002018490870DFF8B00601888D
:100B0000DFF8D00403F06CFDDFF89C0601885FF08D
:100B1000804003F065FDDFF88C0601885FF08040BF
:100B200003F060FDDFF8880601885FF0804003F085
:100B30005BFD002010490870002005490870002066
:100B4000DFF894140870012003F08AFE01BD000054
:100B500099190020691900203A000020000C00407B
:100B6000441900207A19002028000020DA180020FB
:100B7000000C02403800002087190020681900206E
:100B80004400002074190020001802404700002093
:100B9000A71900204800002045000020490000203F
:100BA000A81900204A000020460000204B00002029
:100BB000A91900204C0000206F19002080B50220E8
:100BC00003F03AFE002800F004825FF0804003F05A
:100BD000E9FBDFF8E01508800021DFF8F80303F0F7
:100BE000DFFB00215FF0804003F0DAFB0221DFF839
:100BF000380503F09EFD002800F0E881DFF82C05A1
:100C00000068DFF82C1508600020DFF82015086068
:100C10000821DFF8040503F09BFDDFF88C05008850
:100C2000DFF88015098888420DD1DFF87C0500883F
:100C3000C01EDFF874150880DFF868050088001D05
:100C4000DFF860150880DFF85C050088DFF85815CC
:100C50000988884204D20120DFF85C15087003E09F
:100C60000020DFF854150870DFF8500500780128DF
:100C700040F03A81DFF848050088DFF84815097828
:100C80004843DFF844150860DFF840050078152870
:100C900068DBDFF83C050078002805D002281FD06B
:100CA00010D303282AD036E0DFF81C050068DFF8EF
:100CB00024150860DFF818050078401CDFF81015CF
:100CC000087028E0DFF800050068DFF80C15086000
:100CD000DFF8FC040078401CDFF8F41408701AE018
:100CE000DFF8E4040068DFF8F4140860DFF8E004DB
:100CF0000078401CDFF8D81408700CE0DFF8C80456
:100D00000068DFF8DC140860DFF8C4040078401CD9
:100D1000DFF8BC140870DFF8B8040078042803DB9F
:100D20000020DFF8AC140870DFF8A8040068DFF8D2
:100D3000A81409680818DFF8A41409680818DFF86F
:100D4000A01409680818DFF89C140860DFF8940400
:100D500000688008DFF88C1408600020DFF86C144D
:100D6000087006E0DFF864040078401CDFF85C14CB
:100D70000870DFF870040068DFF86C140968401A26
:100D8000DFF868140860DFF86404006803F0E8FF27
:100D9000DFF858140860DFF854040068B0F5FA5F13
:100DA00007DA0120DFF8481408701920DFF844142E
:100DB0000870DFF838040068B0F5FA5F0EDDDFF880
:100DC0002C04006844F25061884207DA0120DFF801
:100DD000201408700320DFF81C140870DFF80C04DE
:100DE000006844F2516188420EDBDFF800040068BD
:100DF00046F66051884207DA0320DFF8F4130870E2
:100E00000120DFF8F0130870DFF8E003006844F613
:100E10002161884207DB0020DFF8D8130870052025
:100E2000DFF8CC130870DFF8D003007801280FD169
:100E3000DFF8B0030068DFF8C413884208D2DFF897
:100E4000B4030078042803DB0220DFF8A81308703D
:100E5000DFF890030068DFF8A813884203D300206E
:100E6000DFF894130870DFF88C030078DFF8941330
:100E70000978884233D2DFF86C030068DFF8681322
:100E80000968884210D2CA480088DFF864130978DC
:100E9000401AC7490880C6480088B0F5167F03DAB3
:100EA0004FF41670C2490880CF480068CD490968E0
:100EB000884206D2BE480088CD4909784018BC490E
:100EC0000880BB48008846F2F551884203DB46F2B1
:100ED000F450B74908800120CA49087004E0C948A5
:100EE0000078401CC7490870B0480188394803F0B1
:100EF00077FBAD4801885FF0804003F071FBA948A3
:100F000001885FF0804003F06DFBA94801885FF025
:100F1000804003F069FB0120BB4908700120BB49F8
:100F2000087001202C490870B94803F0F5FEB94952
:100F30000870B8480078002803D0B6480078B64951
:100F40000870B34803F0F0FEB4490870B348007865
:100F5000002803D0B1480078B1490870AC4803F0CC
:100F6000EAFEB0490870AF480078002803D0AD48C9
:100F70000078AD4908700020AC4948720020AB49A8
:100F800008720820A94988722220A8490860162002
:100F9000A649C8720020A54908730020A3494873D8
:100FA0000020A24988730020A049C87300209F49EF
:100FB000087400209D49487416209C4988749B49F8
:100FC000934803F08CFDDFF87C1A0870022003F0D0
:100FD00047FC01BD000400406B1900206A19002085
:100FE000751900202600002080B5042003F024FCA1
:100FF000002800F08F805FF0804003F0D3F9DFF825
:10100000481A088000215FF0804003F0C9F9474882
:1010100000684749086000204449086004214248AC
:1010200003F087FB002872D008213B4803F090FBB7
:1010300063480088DFF8141ADFF8142A127821F8C0
:101040001200DFF80C0A0078401CDFF8041A087060
:10105000DFF8F8090088DFF8F419498811FA80F000
:10106000DFF8E819898810FA81F0DFF8E019C988FB
:1010700010FA81F0042190FBF1F051490880DFF86B
:10108000D0090078042803DB0020DFF8C4190870B9
:101090004548008843490988884209D14248008868
:1010A000C01E414908803F480088001D3D49088016
:1010B0003C4800883C490988884203D201203E49C7
:1010C000087002E000203C49087038480188DFF8C9
:1010D000840903F085FA344801885FF0804003F00A
:1010E0007FFA304801885FF0804003F07BFA304897
:1010F00001885FF0804003F077FA022042490870CF
:101100000220424908700220DFF84C1908700420C0
:1011100003F0A6FB01BD0000001C024000080040D7
:1011200046190020C418002000080240A018002022
:1011300060180020500400204300002040190020C7
:10114000641800209E190020D418002028190020BF
:10115000D018002060190020611900202A190020F1
:1011600062190020631900202C1900206419002046
:10117000651900202E19002066190020671900202B
:1011800000640040481900204B1900204919002034
:101190004C1900204A1900204D1900207417002016
:1011A000A1190020340000202E0000203000002073
:1011B00032000020C61800203A0000206F190020DD
:1011C0000619002092190020A81800206D1900208F
:1011D0006C19002034180020381800203C1800201A
:1011E0004018002044180020040000206818002047
:1011F0003C0000207019002072190020A086010018
:10120000A18601007119002087190020991900207A
:1012100000680040541900205D1900205519002075
:101220005E190020561900205F1900209C1700202D
:1012300080B5082003F000FB002800F001845FF077
:10124000804003F0AFF8DFF81418088000215FF049
:10125000804003F0A5F80821DFF8040803F069FADC
:10126000002800F0EA83DFF8FC070068DFF8F817D1
:1012700008600020DFF8EC1708600821DFF8EC07B1
:1012800003F066FADFF8E8070088B0F5FA7F03DDBF
:101290000020DFF8DC170880DFF8D4070088642816
:1012A00040F062810020DFF8C8170880DFF8C4072B
:1012B0000088DFF8C4170880DFF8BC07008880B218
:1012C000000ADFF8B8170870DFF8A8070088DFF811
:1012D000A8170880DFF8A0070088DFF8A4170870B7
:1012E000DFF8A0070068DFF890170880DFF88807AC
:1012F000008880B2000ADFF890170870DFF88407D2
:101300000068DFF874170880DFF86C070088DFF8E2
:101310007C170870DFF878070078112819D1DFF8FA
:1013200074070088DFF850170880DFF84C07008842
:1013300080B2000ADFF860170870DFF858070088ED
:10134000DFF834170880DFF830070088DFF84C1723
:101350000870DFF83C07007818286CD10020DFF80F
:1013600018170880DFF838070078012849D1DFF81E
:1013700034070088012804D0DFF8280700880228F5
:1013800009D1DFF8240700684FF4FA61B0FBF1F0EF
:10139000DFF8E4160880DFF80C07008803280ED079
:1013A000DFF800070088042809D0DFF8F806008875
:1013B000062804D0DFF8EC060088072809D1DFF8FA
:1013C000E806006840F29451B0FBF1F0DFF8A8168F
:1013D00008800020DFF8C0160870DFF89C0600883F
:1013E000DFF8B8160870DFF8BC060088002822D1A4
:1013F0000020DFF8A41608700020DFF8A01608709F
:1014000019E0DFF890060088DFF86C160880DFF836
:101410006806008880B2000ADFF87C160870DFF8E2
:1014200074060088DFF850160880DFF84C06008844
:10143000DFF868160870DFF874060088DFF83816E1
:101440000880DFF83406008880B2000ADFF86016F2
:101450000870DFF858060088DFF81C160880DFF8EF
:1014600018060088DFF84C160870DFF84C0603F009
:1014700053FCDFF848160870DFF8400600780028B3
:1014800005D0DFF838060078DFF834160870DFF88A
:10149000280603F049FCDFF82C160870DFF8240654
:1014A0000078002805D0DFF81C060078DFF8181651
:1014B0000870DFF8040603F03EFCDFF81016087031
:1014C000DFF808060078002805D0DFF8000600786D
:1014D000DFF8FC1508700020DFF8F81548720020CE
:1014E000DFF8F01508720820DFF8E815887211207F
:1014F000DFF8E0150860DFF884050078DFF8D41520
:10150000C872DFF87C050078DFF8C8150873DFF8CB
:1015100078050078DFF8BC154873DFF870050078AF
:10152000DFF8B0158873DFF870050078DFF8A415D0
:10153000C873DFF868050078DFF898150874DFF8DD
:1015400070050078DFF88C154874DFF868050078BE
:10155000DFF880158874DFF87C15DFF85C0503F090
:10156000BEFADFF874150870DFF8700500780028FF
:1015700003D002281DD00ED328E0DFF864050088D0
:10158000DFF860150880DFF854050078401CDFF8AC
:101590004C1508701AE0DFF848050088DFF8481598
:1015A0000880DFF838050078401CDFF83015087037
:1015B0000CE0DFF82C050088DFF830150880DFF834
:1015C0001C050078401CDFF814150870DFF80C05C6
:1015D0000078032803DB0020DFF800150870DFF82F
:1015E00004050088DFF8001509880818DFF8FC14E6
:1015F00009880818DFF87C140880DFF8F404006814
:10160000DFF8F014098810FA81F0DFF8EC14DFF845
:10161000EC24128851F82210401ADFF8D414086024
:10162000DFF8D0040088DFF8D014DFF8D024128867
:1016300041F82200DFF8B8040068C009DFF844145C
:101640000860DFF8B8040088401CDFF8B014088098
:10165000DFF8A8040088802803DB0020DFF89C1452
:101660000880DFF89C040078012840F0A981DFF8A9
:1016700094040068DFF890140968401A03F070FBC6
:10168000DFF888140860DFF88404006842F228312B
:10169000884205DADFF878040078DFF878140870FB
:1016A000DFF86804006842F2293188420CDBDFF879
:1016B0005C04006844F63821884205DADFF85804F3
:1016C0000078DFF850140870DFF84004006844F632
:1016D000392188420CDBDFF83404006847F24811F6
:1016E000884205DADFF834040078DFF8281408703F
:1016F000DFF81804006847F24911884203DB002034
:10170000DFF810140870DFF818040078002830D1D2
:10171000DFF81004007800280DD1DFF80C040088F1
:10172000DFF8881309884843DFF8001408600120B7
:10173000DFF8F0130870DFF8EC03007801280DD112
:10174000DFF8E4030088DFF8641309884843DFF812
:10175000E01308600020DFF8CC130870DFF8CC033A
:101760000068DFF8CC13096808184008DFF8941304
:101770000860DFF8AC030078012846D1DFF8A40345
:10178000007800280DD1DFF8A0030088DFF81C13D3
:1017900009884843DFF8941308600120DFF88413B8
:1017A0000870DFF88003007801280CD1DFF8780397
:1017B0000088BE4909884843DFF874130860022096
:1017C000DFF860130870DFF85C03007802280CD1A2
:1017D000DFF854030088B54909884843DFF85413FB
:1017E00008600020DFF83C130870DFF84003006851
:1017F000DFF83C1309680818DFF83813096808187F
:101800000321B0FBF1F0BF490860DFF81403007852
:10181000022869D1C3480078002809D1C24800884D
:10182000A24909884843C14908600120BD490870A0
:10183000BC480078012809D1BB4800889B49098829
:101840004843BB4908600220B6490870B548007893
:10185000022809D1B4480088944909884843B54909
:1018600008600320AF490870AE480078032809D10A
:10187000AD4800888D4909884843AF490860042075
:10188000A8490870A7480078042809D1A64800880C
:10189000864909884843A94908600520A14908707C
:1018A000A0480078052809D19F4800887F49098809
:1018B0004843A349086000209A4908709B48006883
:1018C0009B49096808189B49096808189A490968DA
:1018D00008189A49096808189949096808180621DA
:1018E000B0FBF1F08749086096480078012806D1DE
:1018F00088480078022802DA022086490870814868
:10190000006881490968884220D28F480078002801
:1019100003D08D480078012818D17E4800788B4983
:10192000097888420AD28A4800888A490988401A78
:101930008749088001208549087004E083480078C1
:10194000401C8249087000207F4908706E4800687A
:101950006C490968884220D27B480078002803D06F
:1019600079480078022818D16A48007877490978C0
:1019700088420AD27648008876490988081874494E
:10198000088001207149087004E070480078401C0C
:101990006E49087000206C4908706D48008846F256
:1019A000F551884203DB46F2F450694908806848E3
:1019B0000088B0F5167F03DA4FF41670644908808A
:1019C0006548008862490988884209D162480088D0
:1019D000C01E614908805E480088001D5C4908807F
:1019E0005B4800885C490988884203D201205B4932
:1019F000087002E0002059490870594801881548CC
:101A000002F0EEFD544801885FF0804002F0E8FDEE
:101A10004F4801885FF0804002F0E4FD51480188A2
:101A20005FF0804002F0E0FD03204F490870032082
:101A30004E490870032008490870082002F010FF82
:101A400001BD0000A2190020C818002020180020A5
:101A500073190020000400406B190020CA180020F0
:101A600000080240A018002060180020001C02405E
:101A7000D4180020F2180020D0180020601900208F
:101A8000611900209C1800206219002063190020B1
:101A90009C190020360000206419002065190020E0
:101AA0007F190020D61800204418002010190020AB
:101AB00066190020671900200064004048190020C2
:101AC0004E190020491900204F1900204A19002002
:101AD00050190020C4170020A11900207E190020F1
:101AE00008190020F4180020F6180020F81800202B
:101AF000B81800200C190020F0130020D218002084
:101B000074190020A418002000000020681800208C
:101B10003F0000203D000020400000204100002048
:101B20003E0000206E1900200619002048180020F1
:101B30004C1800205018002054180020581800207D
:101B40005C180020761900207819002077190020F1
:101B500034000020240000202E0000203A00002045
:101B60003000002032000020871900209919002041
:101B700080B5102002F060FE002801F0B4845FF010
:101B8000804002F00FFCDFF8A41E08800021DFF87F
:101B9000A00E02F005FC00215FF0804002F000FC86
:101BA0001021DFF8C80E02F0C4FD002801F098846F
:101BB0000821DFF8BC0E02F0CBFDDFF8B80E00689C
:101BC000DFF8B41E08600020DFF8A81E0860DFF808
:101BD000AC0E0078112829D1DFF8A40EDFF8A41E7E
:101BE00009784FF4C87202FB0100DFF89C1E0988D7
:101BF000282202FB01000069002817D1DFF88C0EB3
:101C00000088002812D1DFF8880E00886D280DD1D9
:101C1000DFF8800E0088002808D1DFF87C0E0078FD
:101C2000002803D10120DFF8701E0870DFF84C0E89
:101C30000078182829D1DFF8480EDFF8481E097807
:101C40004FF4C87202FB0100DFF83C1E098828220D
:101C500002FB01000069002817D1DFF8300E008870
:101C6000002812D1DFF8280E00883D280DD1DFF8BA
:101C7000240E0088002808D1DFF81C0E0078002808
:101C800003D10120DFF8101E0870DFF80C0E007879
:101C9000012840F0D880DFF8BC0E0088401CDFF837
:101CA000B41E08800120DFF8B01E08700120DFF8A4
:101CB000AC1E0870DFF89C0E0088032809D142F69C
:101CC000E060DFF89C1E088042F6E060DFF8941EBA
:101CD0000880DFF8800E0088B0F5C87F5ED1DFF89D
:101CE000880EB0F900009638DFF8801E0880DFF813
:101CF0007C0EB0F9000003F033F8DFF8701E0880A6
:101D0000DFF8CC0EB0F900002E38DFF8D41E0880C2
:101D1000DFF8CC0EB0F9000003F022F8DFF8C01EA7
:101D20000880DFF8480EB0F90000152808DB012014
:101D3000DFF8B01E087040F28330DFF8181E08800C
:101D4000DFF89C0EB0F90000152808DB0220DFF850
:101D5000941E087040F28330DFF8F81D0880DFF829
:101D60000C0EB0F9000015280EDBDFF8740EB0F988
:101D70000000152808DB0320DFF8681E087040F219
:101D80008330DFF8D01D088042F21070DFF8D01DDC
:101D9000088042F21070DFF8CC1D0880DFF8B40D27
:101DA0000088B0F5487F44D1DFF8BC0D0088FE38CC
:101DB00002F0D6FFDFF8B41D0880DFF8140E0088AB
:101DC000703802F0CDFFDFF8181E0880DFF89C0D98
:101DD000B0F90000292808DB0120DFF8081E087090
:101DE00040F28330DFF86C1D0880DFF8F40DB0F9A5
:101DF0000000292808DB0220DFF8E81D087040F207
:101E00008330DFF8501D0880DFF8600DB0F9000066
:101E100015280EDBDFF8C80DB0F90000152808DB27
:101E20000320DFF8C01D087040F28330DFF8241D66
:101E30000880DFF8200D0088B0F5617F03D1022013
:101E4000DFF8541C0870DFF8880E02F065FFDFF839
:101E5000841E0870DFF87C0E0078002805D0DFF8BB
:101E6000740E0078DFF8801E0870DFF8640E02F050
:101E70005BFFDFF8781E0870DFF8700E007800282E
:101E800005D0DFF8680E0078DFF8641E0870DFF810
:101E9000400E02F050FFDFF85C1E0870DFF8540EB1
:101EA0000078002805D0DFF84C0E0078DFF8481ED7
:101EB00008700020DFF8441E48720020DFF83C1E46
:101EC00008720820DFF8341E88722320DFF82C1EE9
:101ED00008601720DFF8241EC8720020DFF81C1EDF
:101EE00008730020DFF8141E48730020DFF80C1E72
:101EF00088730020DFF8041EC8730020DFF8FC1D83
:101F000008740020DFF8F41D48741720DFF8EC1D7A
:101F10008874DFF8E81DDFF8B80D02F0E0FDDFF8A7
:101F2000701E0870DFF8640B0088002801F08A80BA
:101F3000DFF8600E0068401CDFF8581E0860DFF80C
:101F4000540E006841F27071884219D10020DFF808
:101F5000481E087042F21C50DFF8041C0880012063
:101F6000DFF8F41B087042F21070DFF8481E0860BA
:101F70000020DFF8441E08700020DFF8401E0870C3
:101F8000DFF8100E006841F64C51884228D142F229
:101F9000E450DFF8541E088042F61860DFF84C1E4B
:101FA000088041F67C70DFF8481E088040F2CE20A1
:101FB000DFF8401E08800C20DFF83C1E0880F0206F
:101FC000DFF8381E08807920DFF8341E088041F6DB
:101FD000B410DFF8541E08800020DFF8E01D087000
:101FE000DFF8B00D0068DFF8441E884213D10020EE
:101FF000DFF83C1E08603220DFF8381E0870002031
:10200000DFF8B01D08600020DFF84C1E08701420B7
:10201000DFF8481E0880DFF87C0D0068DFF8401EFE
:10202000884209D10020DFF8901D08704FF48051DC
:10203000DFF83C0A02F08CFBDFF8580D0068DFF88F
:10204000241E884207D10020DFF80C1B0870642092
:10205000DFF8401E0880DFF83C0D0068DFF8381E0E
:10206000884207D10020DFF8341E08800020DFF806
:10207000301E0880DFF81C0D0068DFF8281E88423B
:1020800003D10020DFF8201E0880DFF8F009007877
:10209000182840F01684DFF8540E0078002800F06D
:1020A0002583DFF8F00C006842F22831884227D1FE
:1020B0000120DFF83C1E08800120DFF89C1A087020
:1020C000DFF8440EDFF8EC1C08600120DFF83C1E4E
:1020D0000870DFF84C0EDFF8581D086042F2283017
:1020E000DFF8401E08604DF2F020DFF84C1E08605B
:1020F0005120DFF8481E08700020DFF8C01C08706F
:10210000DFF8900C006842F21C51884236D142F24E
:102110001660DFF8D41C088042F65820DFF8CC1C8B
:10212000088041F67E50DFF8C81C088042F27E200D
:10213000DFF8241E088040F2CD20DFF8B81C0880AC
:10214000FA20DFF8B41C08806E20DFF8441E0880F7
:10215000F020DFF8A81C08808A20DFF8A41C088083
:1021600042F6B450DFF8C01C08804FF4B970DFF8B5
:10217000401E08800120DFF8441C0870DFF8140CB2
:1021800000684DF2F02188421FD10220DFF8601D67
:102190000880DFF8380EDFF81C1C0860DFF8800DBF
:1021A000DFF88C1C08604DF2F020DFF8781D086025
:1021B000DFF81C0EDFF8801D08606F20DFF87C1D43
:1021C00008700020DFF8F41B0870DFF8C80B006807
:1021D0004DF2E441884237D142F2E450DFF8081C66
:1021E000088042F66810DFF8041C088041F684403D
:1021F000DFF8FC1B088042F22E20DFF85C1D08800F
:1022000040F2CE20DFF8EC1B08804FF49670DFF828
:10221000E81B08806E20DFF8781D0880F020DFF8CA
:10222000DC1B08808E20DFF8D81B088043F2C82012
:10223000DFF8F41B08804FF4B970DFF8741D0880D4
:102240000120DFF8781B0870DFF8480B0068DFF822
:10225000801D88421FD10320DFF8941C0880DFF81E
:10226000EC0DDFF8501B0860DFF8B40CDFF8C01B82
:102270000860DFF85C0DDFF8AC1C0860DFF8D00DFB
:10228000DFF8B41C08609F20DFF8B01C0870002045
:10229000DFF8281B0870DFF8FC0A0068DFF8B41DBF
:1022A000884237D142F2E450DFF83C1B088042F20A
:1022B0007470DFF8381B088041F65830DFF8301BA7
:1022C000088041F61870DFF8901C088040F2CF209B
:1022D000DFF8201B088040F28B10DFF81C1B088001
:1022E0008220DFF8AC1C0880F020DFF8101B08808B
:1022F0009620DFF80C1B088043F6FC20DFF8281B33
:1023000008804FF4B970DFF8A81C08800120DFF8BE
:10231000AC1A0870DFF87C0A0068DFF8341D8842C8
:102320001FD10420DFF8C81B0880DFF8180EDFF883
:10233000841A0860DFF8E80BDFF8F41A0860DFF8A9
:10234000100DDFF8E01B0860DFF8280EDFF8E81B4F
:102350000860F020DFF8E41B08700020DFF85C1A4A
:102360000870DFF8300A0068DFF80C1E884237D1A9
:1023700042F2E450DFF8701A088042F2DC30DFF8F5
:102380006C1A088041F64A10DFF8641A088041F69A
:10239000FA60DFF8C41B08804FF43470DFF8541A79
:1023A000088040F22220DFF8501A08808220DFF8EF
:1023B000E01B0880F020DFF8441A0880A320DFF833
:1023C000401A088044F67010DFF85C1A08804FF459
:1023D000B970DFF8DC1B08800120DFF8E019087015
:1023E000DFF8B0090068DFF8F01D884204D142F23E
:1023F0001070DFF83C1A0860DFF898090068DFF811
:10240000741D884223D10520DFF8E41A08800120DA
:10241000DFF88419087042F21070DFF8981908602C
:1024200042F21070DFF8081A0860DFF8480DDFF894
:10243000F41A0860DFF8D40DDFF8FC1A08600A20EF
:10244000DFF8F81A08700020DFF870190870DFF85C
:1024500044090068DFF8B41D884227D10020DFF866
:10246000381908700120DFF8A41A08700620DFF878
:10247000801A0880DFF8D40BDFF838190860DFF81D
:10248000A00ADFF8AC190860DFF8800DDFF8941AB5
:102490000860DFF87C0DDFF8A01A08609F20DFF8E5
:1024A0009C1A08700020DFF814190870DFF8E4089F
:1024B0000068DFF8601D884237D142F2E450DFF84F
:1024C0002819088042F27470DFF82019088041F65C
:1024D0005830DFF81C19088041F61870DFF8781AB8
:1024E000088040F2CF20DFF80C19088040F28B10F2
:1024F000DFF8041908808220DFF8941A0880F020A1
:10250000DFF8F81808809620DFF8F418088043F602
:10251000FC20DFF8141908804FF4B970DFF8901A26
:1025200008800120DFF894180870DFF86808006858
:10253000DFF8DC1C88421FD10720DFF8B4190880BF
:10254000DFF8000CDFF86C180860DFF8D409DFF85A
:10255000E0180860DFF8B80CDFF8C8190860DFF889
:10256000B80CDFF8D4190860F020DFF8D019087033
:102570000020DFF848180870DFF818080068DFF856
:102580009C1C884237D142F2E450DFF85C18088086
:1025900042F2DC30DFF85418088041F64A10DFF8C8
:1025A0005018088041F6FA60DFF8AC1908804FF443
:1025B0003470DFF84018088040F22220DFF8381825
:1025C00008808220DFF8C8190880F020DFF82C1876
:1025D0000880A320DFF82818088044F67010DFF880
:1025E000481808804FF4B970DFF8C419088001203A
:1025F000DFF8C8170870DFF89C070068DFF8181CC0
:1026000088422DD10120DFF8901708700820DFF8EC
:10261000E01808800020DFF89C1708600020DFF831
:10262000101808600020DFF8301808700A20DFF862
:1026300004180870DFF8E00BDFF8E8180860DFF82E
:10264000740DDFF8F41808600020DFF8F018087047
:102650000020DFF8681708700120DFF85C1D0870A3
:10266000DFF830070068DFF8541D884203D11420DA
:10267000DFF8E8170880DFF81C070068DFF8401D66
:1026800088420BD10020DFF8D01408700020DFF85A
:10269000281708700020DFF82C1D0870DFF8F406FA
:1026A0000068DFF8101D884220D1DFF81C0DDFF82C
:1026B000E41608600920DFF8381808800020DFF8E9
:1026C000981408700020DFF8D41708800020DFF885
:1026D0008C1408700020DFF8E01608700020DFF886
:1026E000E41C08705020DFF8E41C0870DFF8E00CF0
:1026F0000078002800F0E580DFF89806006842F2D4
:102700002831884222D10120DFF8E4170880012017
:10271000DFF844140870DFF8700DDFF898160860D1
:102720000020DFF8941608709F20DFF8101808705A
:102730000020DFF88816087042F22830DFF8E4172E
:102740000860DFF8C80ADFF8F0170860DFF8440611
:10275000006842F61E51884204D1DFF8F008DFF825
:1027600054160860DFF82C06006844F274018842B1
:1027700037D142F2E450DFF87016088042F6681054
:10278000DFF86816088041F65830DFF864160880D4
:1027900045F6D810DFF8C017088040F2CE20DFF8E9
:1027A0005416088040F28B10DFF84C160880002089
:1027B000DFF8DC170880F020DFF84016088096204C
:1027C000DFF83C16088043F6FC20DFF85C16088032
:1027D0004FF4B970DFF8D81708800020DFF8DC1557
:1027E0000870DFF8B0050068DFF8201A884229D1A8
:1027F0000120DFF8A41508700820DFF8F41608801F
:102800000020DFF8B01508600020DFF84C160870D3
:102810000020DFF8D41C08600020DFF820170870C3
:102820000020DFF898150870DFF8E009DFF8F416EB
:102830000860DFF8B80CDFF8001708600120DFF847
:10284000781B0870DFF84C050068DFF8A41C88428C
:1028500003D11420DFF804160880DFF8380500687B
:10286000DFF8901C88420AD10020BB490870002084
:10287000DFF8441508700020DFF8481B0870DFF807
:1028800014050068DFF8641C88421AD1DFF8680C70
:10289000DFF8001508600920DFF8541608800020D2
:1028A000AD4908700020DFF8F41508800020AB491E
:1028B00008700020DFF8001508705020DFF80C1BAE
:1028C00008706E480078112840F0BC83DFF8000BD8
:1028D0000078002800F0C780DFF8B804006843F6ED
:1028E0009821884221D10120DFF8041608800120B8
:1028F00099490870DFF8040CDFF8B814086000206C
:10290000DFF8B41408705220DFF830160870002089
:10291000DFF8A814087043F69820DFF8081608605E
:10292000DFF8E808DFF810160860DFF868040068D0
:1029300044F64401884221D10120DFF8B415088013
:10294000012085490870DFF8B80BDFF868140860CB
:102950000020DFF8641408705220DFF8E0150870DA
:102960000020DFF85814087043F69820DFF8B415FB
:102970000860DFF89808DFF8C0150860DFF8140475
:102980000068DFF88818884229D10120DFF8081490
:1029900008700820DFF8581508800020DFF81414AC
:1029A00008600020DFF8B01408700020DFF8381B42
:1029B00008600020DFF8841508700020DFF8FC13A1
:1029C0000870DFF84808DFF85C150860DFF81C0BBA
:1029D000DFF8641508600120DFF8DC190870DFF803
:1029E000B4030068DFF8081B884203D11420DFF825
:1029F0006C140880DFF89C030068DFF8F81A88423E
:102A00000AD10020544908700020DFF8AC13087088
:102A10000020DFF8B0190870DFF878030068DFF8ED
:102A2000CC1A88421FD1DFF8D00A03E0CC1800206E
:102A300000040040DFF85C1308600920DFF8B014E0
:102A400008800020444908700020DFF850140880F6
:102A50000020424908700020DFF85C130870502005
:102A6000DFF868190870DFF89C0A17E000080240D8
:102A7000001C0240A0180020601800209C190020B3
:102A8000500400204300002040190020DA180020E4
:102A90000E190020D8180020A31900200078002863
:102AA00000F0D780BB48006843F6982188421ED1C9
:102AB0000120DFF83C140880012027490870DFF866
:102AC0003C0ABC4908600020BB4908702820DFF898
:102AD0006C1408700020B949087043F69820DFF89C
:102AE00044140860DFF8080ADFF84C140860A948AD
:102AF000006844F2740188423ED142F2E450BA497F
:102B0000088042F66810B949088041F65830B84943
:102B1000088045F6D810DFF84014088040F2CE2037
:102B2000B449088040F28B10B34908800020DFF8D8
:102B300060140880F020B14908809620B0490880D0
:102B400043F6FC20B84908804FF4B970DFF86014F0
:102B50000EE000BFF0180020741900207519002045
:102B6000340000203000002036000020DC18002057
:102B7000088000209149087086480068DFF87019C5
:102B8000884228D10120844908700820DFF86013AA
:102B900008800020874908600020AF4908700020A5
:102BA000DFF8441908600020DFF890130870002057
:102BB00082490870DFF83809DFF868130860DFF829
:102BC0004809DFF8741308600120DFF8EC1701E012
:102BD0000A19002008706F480068DFF8301903E018
:102BE000DE180020A4190020884202D114209B493D
:102BF000088068480068DFF8181988420AD1002068
:102C0000DFF81019087000206B4908700020DFF809
:102C1000B41708705F480068DFF8EC18884218D1D4
:102C2000DFF8F4085B4908600920B14908800020FA
:102C3000DFF8E01808700020984908800020DFF8CD
:102C4000DC18087000205C4908705020DFF87C1701
:102C50000870DFF8CC080078002800F0FA804D48B2
:102C6000006843F6982188421BD10120A0490880C2
:102C70000120DFF8A0180870DFF880084D490860CF
:102C800000204D4908702820AC49087000204B49AD
:102C9000087043F69820A3490860DFF85408A64955
:102CA00008603C480068DFF8481888421AD10220C2
:102CB0008F490880DFF848083E49086052209F4944
:102CC000087000203D490870DFF8240804E000BFC8
:102CD000006800405419002092490860DFF8440859
:102CE000954908602B480BE05A190020551900201F
:102CF0005B190020561900205C190020D81700200D
:102D00000068DFF82018884214D103207849088031
:102D1000DFF81408274908607120884908700020EE
:102D200026490870DFF8FC077E490860DFF8FC07D9
:102D30008149086017480068DFF8F017884221D100
:102D400001201549087008206949088000201949A8
:102D500008600020404908700020DFF88C170860E8
:102D6000002076490870002014490870DFF8BC077D
:102D70006C490860DFF8B8076F4908600120DFF888
:102D80003816087003480068DFF8A81706E000BF8F
:102D9000A21900209818002076190020884202D13C
:102DA00014202E490880DFF890070068DFF88C17A0
:102DB00006E000BF000000206F190020A6190020C7
:102DC00088420BD10020DFF84C1708700020DFF894
:102DD000701708700020DFF8EC150870DFF858074E
:102DE0000068DFF84C170DE01219002014190020BC
:102DF000161900201A1900201C1900202019002083
:102E000022190020884224D1DFF83807DFF828177C
:102E100008600920364908800020DFF8F81608709D
:102E200000201E4908E000BF24190020B00009005E
:102E3000040000203C00002008800020DFF8DC16A1
:102E400008700020DFF8F81608705020DFF87C15B5
:102E50000870DFF8F40607E03D00002024000020A1
:102E600014010900460109000078002800F0EA80FA
:102E7000DFF8C406006843F6982188422CD101206F
:102E80001B4908800120DFF88C160870DFF87006F7
:102E90000CE000BFE0180020DC0109002800002041
:102EA0002A000020D003090026000020DFF89C162D
:102EB00008600020DFF88816087052201F4908704B
:102EC0000020DFF88C16087043F69820154908603A
:102ED000DFF8800618490860DFF85C060068DFF854
:102EE000741688422DD10220014903E07F19002089
:102EF000D61800200880DFF83006DFF8501608608A
:102F000071200E4904E000BF98AB02007219002046
:102F100008700020DFF838160870DFF8380603E084
:102F2000A08601008C180020DFF82C160860DFF85E
:102F30002C06014904E000BF901800203B0000204F
:102F40000860DFF8F4050068DFF81016884232D117
:102F50000120DFF80C1601E0181900200870082085
:102F6000DFF8001608800020DFF8E0150860002078
:102F7000DFF8F41508700020DFF86C1508600020F9
:102F8000DFF8E81508700020DFF8C41502E000BF84
:102F90001E1900200870DFF8C405DFF8BC150860B2
:102FA0000B48DFF8CC1508600120DFF80C1401E0B5
:102FB000261900200870DFF880050068DFF8B415D6
:102FC000884208D11420DFF8B01503E0CA55030089
:102FD00050BD01000880DFF860050068DFF89C152F
:102FE00088420BD10020DFF82C1508700020DFF894
:102FF000501508700020DFF8CC130870DFF8380592
:103000000068DFF87C1588421CD1DFF87805DFF80E
:10301000281508600920DFF84C1508800020DFF82B
:10302000F41408700020DFF8601508800020DFF835
:10303000EC1408700020DFF8081508705020DFF845
:103040008C130870DFF8440506E000BF52540400FA
:10305000186D020044BF01000088322840F0FA8158
:10306000DFF82C050088002857D0DFF824050088F9
:103070004CF25031884250DADFF8180500780A30F7
:10308000DFF814150860DFF810050068DFF80C158C
:1030900009784018CD4909784018C0B2DFF8F81413
:1030A0000860DFF8EC04008840F6B83190FBF1F0DE
:1030B000C0B2DFF8EC140860DFF8E404006840F602
:1030C000B8314843DFF8DC140860DFF8C404008836
:1030D000DFF8D0140968401ADFF8C8140860DFF878
:1030E000C40400683221B0FBF1F0C0B2DFF8B414C0
:1030F0000860DFF8B4040078DFF8A4140968401A07
:10310000C0B2DFF8A8140860DFF898040068D0F1B6
:103110003B00C0B2DFF898140860DFF87404008840
:103120004CF25031884218DBDFF868040078283010
:10313000DFF864140860DFF860040068DFF85C14EE
:1031400002E000BFDA010600097840189F490978BB
:103150004018C0B2DFF840140860DFF8DC030068F4
:10316000002800F0AE80DFF8D0030068DFF84414D8
:1031700004E000BFB0A702000C6F0200098888427B
:103180004ED2DFF8B403006840F6B831B0FBF1F07E
:10319000C0B2DFF80C140860DFF80404006840F6E1
:1031A000B8314843DFF8FC130860DFF88C0300688F
:1031B000DFF8F0130968401ADFF8E8130860DFF859
:1031C000E40300683221B0FBF1F0C0B2DFF8D413A1
:1031D0000860DFF8E40301E0BCA502000078DFF836
:1031E000C0130968401AC0B2DFF8C0130860DFF8E6
:1031F000B4030068D0F13B00C0B2DFF8B41308603C
:103200000020DFF8B81308605BE000BF48E202006E
:10321000A8CC03003CE40200400704009CCE03005D
:10322000DFF814030068DFF830130968401A40F62D
:10323000B831B0FBF1F0C0B2DFF864130860DFF81A
:103240006003006840F6B8314843DFF8581308605F
:10325000B9480068DFF800130968401ADFF8441322
:103260000968401ADFF83C130860DFF8380300688B
:103270003221B0FBF1F0C0B2DFF828130860BC487F
:103280000068AD490968401A401E40F6B831B0FBED
:10329000F1F0C0B2DFF814130860DFF8080300682B
:1032A000D0F13B00C0B2DFF8081308600120DFF85E
:1032B0000C13086045480078502802D10220BF490D
:1032C0000860BF480068BF490860BE480068002821
:1032D00002D10120BB490860BA48006840F6B83105
:1032E000B0FBF1F0B7490860B6480068B64908601D
:1032F000B5480068B5490870B54801F00DFDB549FD
:103300000870B4480078002803D0B2480078B24969
:103310000870AF4801F008FDB0490870AF48007868
:10332000002803D0AD480078AD490870A84801F0E6
:1033300002FDAC490870AB480078002803D0A948CA
:103340000078A9490870A9480078002842D10020D7
:10335000A74948720020A64908720820A44988722B
:103360002220A34908608C480068A149C8727F48A0
:1033700000789F490873914800689D4948739348B5
:1033800000789B498873864800689949C8738548C6
:1033900000689749087485480068954948748448CE
:1033A0000068934988749249894801F098FB9149D3
:1033B00008704FE0682A04008E190020B01E040037
:1033C0007428040088190020672A04008519002049
:1033D0008419002000208649487200208449087220
:1033E0000820834988723320814908606A48006850
:1033F0007F49C872804800687D4908736F4800683B
:103400007B49487371480078794988737B48007814
:103410007749C8737A4800787549087479487A49B9
:1034200009784FF4C87202FB010078490988282204
:1034300002FB010000696E494874754800886C49B8
:1034400088746B49624801F04AFB6A4908700020A1
:10345000664908706F4800886F490988884209D119
:103460006C480088C01E6B4908806B480088001DAE
:10347000694908806848008866490988884205D2F9
:1034800001206649087004E00291030000206349AE
:1034900008706348008863490988484362490860A6
:1034A00062480188624801F09BF85A4801885FF041
:1034B000804001F095F8584801885FF0804001F0A5
:1034C00091F85C4801885FF0804001F08DF804209D
:1034D0005949087004205949087004205849087057
:1034E000102001F0BDF901BDA818002070050300EF
:1034F000B8F902007C0303006F0503005AE50100E0
:103500006CDC020081190020E01C0300281103007C
:10351000EC1A030074190020DF1C03007519002049
:1035200083190020D8B80500548F030070F30500FC
:1035300098160600E00A060098180020A414060059
:103540006F19002097160600821900200000002045
:10355000A6190020905F01008C180020289A010015
:1035600076190020D61800203D0000203B000020E6
:1035700090180020E0A50100240000205CBB0100A1
:1035800050BD01004FBD010028000020D4180020CC
:10359000D8180020901900206C180020A5190020D0
:1035A0007C18002080180020911900208418002029
:1035B00088180020EC1800208619002074180020BC
:1035C0006418002094180020781800207919002031
:1035D00000640040481900205119002049190020BA
:1035E000521900204A190020531900208F19002079
:1035F000EC170020A119002070180020A31900204A
:10360000A41900205004002043000020401900208D
:103610000E1900202E000020340000203A00002067
:103620000619002004190020AC18002030000020EA
:103630000004004032000020871900209919002062
:103640006B19002080B5202001F0F6F8002800F06A
:10365000FC855FF0804000F0A5FEDFF8F01B0880DD
:1036600000215FF0804000F09BFE2021DFF8E00B9E
:1036700001F05FF8002800F0E5850821DFF8D40BA1
:1036800001F066F8DFF8D00B0068DFF8D01B0860A7
:103690000020DFF8C41B0860DFF8C40B008842F28A
:1036A00011718842C0F29480DFF8B80B008842F2B2
:1036B00011718842C0F28C80DFF8AC0B008842F2B6
:1036C00011718842C0F28480DFF8A00B008842F2BA
:1036D000117188427CDBDFF8980B008842F211718F
:1036E000884275DBDFF8640B008842F21171884272
:1036F0006EDBDFF8800B01F00FFBDFF87C1B08703E
:10370000DFF8740B0078002805D0DFF86C0B007828
:10371000DFF8681B0870DFF85C0B01F005FBDFF8D1
:10372000601B0870DFF8580B0078002805D0DFF820
:10373000500B0078DFF84C1B0870DFF8380B01F0F5
:10374000FAFADFF8441B0870DFF83C0B0078002819
:1037500005D0DFF8340B0078DFF8301B087000204C
:10376000DFF82C1B48720020DFF8241B08720820A9
:10377000DFF81C1B88722420DFF8141B0860182057
:10378000DFF80C1BC8720020DFF8041B0873002050
:10379000DFF8FC1A48730020DFF8F41A8873002061
:1037A000DFF8EC1AC8730020DFF8E41A0874002070
:1037B000DFF8DC1A48741820DFF8D41A8874DFF8B0
:1037C000D01ADFF8B00A01F08AF9DFF8C81A0870D9
:1037D000DFF8C40ADFF8C41A09784FF4C87202FB94
:1037E0000100DFF8BC1A0988282202FB01000069E9
:1037F000DFF8B01A0860DFF8AC0A006800281FD1B3
:10380000DFF8A40A007800281AD10020DFF89C1AFB
:1038100008700020DFF8981A08700020DFF8941A6A
:10382000087042F6F820DFF8901A088046F27020FF
:10383000DFF8881A088045F6B470DFF8841A08802B
:10384000DFF8600A006800281FD1DFF85C0A007802
:1038500002281AD10020DFF8541A08700020DFF87F
:10386000501A08700020DFF84C1A087042F6F82051
:10387000DFF8441A088046F27020DFF8401A08800A
:1038800045F6B470DFF8381A0880DFF8380A008887
:1038900000281FD1DFF8300A007801281AD1002053
:1038A000DFF8081A08700020DFF8041A08700020FA
:1038B000DFF8001A087042F6F820DFF8FC190880DB
:1038C00046F27020DFF8F419088045F6B470DFF88E
:1038D000F0190880DFF8CC090068002803D0012027
:1038E000DFF8CC190870DFF8E4090088022190FBAA
:1038F000F1F0DFF8DC190880DFF8D0090088DFF884
:10390000D4190988401AB0F57A7F05DDDFF8C409BB
:103910000088DFF8B8190880DFF8B0090088DFF800
:10392000B4190880DFF8B0090088DFF8B0190988F9
:1039300088420AD2DFF880090088401EDFF8781933
:1039400008800120DFF898190870DFF890090088D6
:10395000DFF88419098888420AD2DFF85C090088F8
:10396000401CDFF8541908800220DFF87419087031
:10397000DFF870090088B0F5967F16DADFF83009B5
:103980000078012811D1DFF82009007802280CD135
:103990004FF48061DFF8BC0800F0D8FEDFF844097E
:1039A0000088401CDFF83C190880DFF838090088DF
:1039B000B0F5967F0ADB4FF48061DFF8980800F0DD
:1039C000C7FE40F22D10DFF81C190880DFF8180937
:1039D0000078002824D1DFF8D008007802281FD111
:1039E000DFF800090088B0F5967F19DDDFF8E808F8
:1039F0000088DFF8E81809883C39884203DA00209B
:103A0000DFF8B0180870DFF8D40800882838DFF82D
:103A1000C8180988884203DA0120DFF8981808706E
:103A2000DFF8C8080078002840F07C81DFF88408BF
:103A30000078012840F07681DFF8B40800885B2820
:103A400010DBDFF8AC08008878280BDADFF8A40870
:103A50000088662806DADFF89C080088401CDFF83A
:103A600094180880DFF88C080088652871DBDFF87F
:103A700084080088DFF880180988884269D2DFF856
:103A80007C080078182864D1DFF864080088B92819
:103A900012DADFF828080088401EDFF820180880B6
:103AA000DFF81808008845F2B861884204DA45F268
:103AB000B860DFF808180880DFF834080088B928F3
:103AC00017DADFF82C080088AF2812DBDFF8EC07E4
:103AD0000088401EDFF8E4170880DFF8E007008860
:103AE00045F2B861884204DA45F2B860DFF8CC17D5
:103AF0000880DFF8FC070088C42806DBDFF8BC0775
:103B00000088801CDFF8B4170880DFF8E40700881D
:103B1000BA280BDBDFF8D8070088C42806DADFF8FC
:103B20009C070088401CDFF894170880DFF88C079A
:103B3000008846F2D521884204DB46F2D420DFF823
:103B40007C170880DFF8AC070088401CDFF8A4175A
:103B50000880DFF8A0070088652871DBDFF894078C
:103B60000088DFF894170988884269D2DFF88C074B
:103B70000078112864D1DFF878070088BC2812DAB1
:103B8000DFF838070088401EDFF830170880DFF8BC
:103B90002C07008845F2B861884204DA45F2B86023
:103BA000DFF818170880DFF848070088BC2817DA04
:103BB000DFF83C070088AF2812DBDFF80007008839
:103BC000401EDFF8F8160880DFF8F006008845F29E
:103BD000B861884204DA45F2B860DFF8E016088080
:103BE000DFF80C070088C42806DBDFF8D006008861
:103BF000801CDFF8C8160880DFF8F4060088BD28AE
:103C00000BDBDFF8EC060088C42806DADFF8AC0628
:103C10000088401CDFF8A4160880DFF8A0060088A2
:103C200046F2D521884204DB46F2D420DFF88C1618
:103C30000880DFF8C0060088401CDFF8B81608804E
:103C4000DFF8B0060088B0F5966F10DDDFF8A40647
:103C5000008841F27C51884209DADFF8A406008826
:103C6000DFF8781608800120DFF87C160870DFF88E
:103C70008406008841F2A961884203DB0020DFF856
:103C800068160870DFF86C060088B0F5967F25DDB1
:103C9000DFF860060088DFF86016098888421DD2C8
:103CA000DFF84C06008846280BDADFF85806008853
:103CB000401CDFF8501608800720DFF84C1608700B
:103CC00003E00020DFF83C160880DFF838060088A3
:103CD000FB2803DB0120DFF8F0150870DFF814067D
:103CE0000088DFF81416098888421BD1DFF8100617
:103CF0000088DFF8E81508800020DFF8B8150870A4
:103D000045F6D810DFF8B41508800120DFF8B415A7
:103D100008804CF25030DFF8DC1508800120DFF815
:103D2000CC150870DFF8CC0500880A280EDADFF819
:103D3000CC050078182804D1F020DFF8C4150880DD
:103D400004E04FF4BE70DFF8B8150880DFF87405A2
:103D50000088012840F02882DFF858050078012803
:103D600040F02282DFF894050078182840F029817D
:103D7000DFF87C0500884728C0F2BC80DFF87005BA
:103D80000088B0F5967F11DADFF830050088801ED4
:103D9000DFF828150880DFF824050088B0F5167FC5
:103DA00004DA4FF41670DFF814150880DFF84005C8
:103DB0000088B0F5B87F17DADFF834050088B0F571
:103DC000967F11DBDFF8F4040088401EDFF8EC1466
:103DD0000880DFF8E8040088B0F5167F04DA4FF4B5
:103DE0001670DFF8D8140880DFF804050088B0F5F5
:103DF000B97F2BDADFF8F8040088B0F5B87F25DB4F
:103E0000DFF808050078DFF80815097888420BD23A
:103E1000DFF8A8040088401EDFF8A0140880002006
:103E2000DFF8EC14087006E0DFF8E4040078401CCA
:103E3000DFF8DC140870DFF884040088B0F5167F22
:103E400004DA4FF41670DFF874140880DFF8A00469
:103E50000088B0F5C87F06DDDFF860040088801CAC
:103E6000DFF858140880DFF888040088B0F5BA7FBE
:103E70000CDDDFF87C040088B0F5C87F06DCDFF8D5
:103E80003C040088401CDFF834140880DFF860042C
:103E90000088B0F5B97F20DDDFF854040088B0F564
:103EA000BA7F1ADCDFF864040078DFF8641409785C
:103EB00088420BD2DFF804040088401CDFF8FC13B2
:103EC00008800020DFF84814087006E0DFF840049E
:103ED0000078401CDFF838140870DFF8E003008831
:103EE00046F2D52188426CDB46F2D420DFF8CC13B1
:103EF000088066E0DFF8DC03008841F270718842D8
:103F000011DADFF8B8030088801EDFF8B0130880EC
:103F1000DFF8A8030088B0F5167F04DA4FF41670B6
:103F2000DFF898130880DFF8AC03008841F65011E1
:103F3000884218DADFF89C03008841F271718842E8
:103F400011DBDFF878030088401EDFF8701308806B
:103F5000DFF868030088B0F5167F04DA4FF41670B6
:103F6000DFF858130880DFF86C03008841F65931F8
:103F7000884206DBDFF844030088801CDFF83C132E
:103F80000880DFF85003008841F6511188420DDBAC
:103F9000DFF84003008841F65831884206DADFF83E
:103FA0001C030088401CDFF814130880DFF80C03A2
:103FB000008846F2D521884203DB46F2D420BF496F
:103FC0000880DFF838030078112840F0ED80DFF832
:103FD000200300884728C0F29580DFF8140300888A
:103FE000B0F5967F0DDAB5480088801EB349088089
:103FF000B2480088B0F5167F03DA4FF41670AF4967
:104000000880BB480088B0F5BA7F12DCB848008849
:10401000B0F5967F0DDBA9480088401EA7490880AF
:10402000A6480088B0F5167F03DA4FF41670A3494E
:104030000880AF480088B0F5BB7F21DCAC48008821
:10404000B0F5BA7F1CDDB1480078B14909788842E3
:1040500008D29A480088401E984908800020AC4940
:10406000087004E0AA480078401CA94908709348E9
:104070000088B0F5167F03DA4FF416708F49088078
:104080009B480088B0F5C87F04DD8C480088801C00
:104090008A49088096480088B0F5BD7F09DB9448BE
:1040A0000088B0F5C87F04DC84480088401C834940
:1040B00008808F480088B0F5BC7F18DB8C480088EA
:1040C000B0F5BD7F13DA91480078914909788842AC
:1040D00008D27A480088401C7849088000208C4922
:1040E000087004E08A480078401C894908707348C9
:1040F000008846F2D521884256DB46F2D4206F492B
:10410000088051E073480088B0F5965F0DDA6B487F
:104110000088801E6949088068480088B0F5167FCD
:1041200003DA4FF41670654908806A48008841F246
:104130003A41884212DA67480088B0F5965F0DDD93
:104140005E480088401E5D4908805C480088B0F5E4
:10415000167F03DA4FF41670584908805D480088CE
:1041600041F27171884204DB54480088801C534935
:1041700008805848008841F23B4188420ADB554894
:10418000008841F27071884204DA4C480088401C73
:104190004A4908804948008846F2D521884203DB15
:1041A00046F2D4204549088044480088444909889B
:1041B000884209D141480088C01E404908804048D3
:1041C0000088001D3E4908803D4800883B49098819
:1041D000884203D201204F49087002E000204D4977
:1041E0000870364800884C49098808183349088007
:1041F0003248008846F2F551884203DB46F2F4501B
:104200002E4908802C480188444800F0E9F92B48E1
:1042100001885FF0804000F0E3F9294801885FF0F1
:10422000804000F0DFF93E4801885FF0804000F0F8
:10423000DBF905203B49087005203B490870052043
:104240003A490870202000F00BFB01BDCE18002079
:1042500000080240001C0240A01800206018002046
:10426000C4180020C6180020C8180020CA18002052
:10427000CC18002000680040541900205719002075
:1042800055190020581900205619002059190020EE
:1042900000180020A2190020500400204300002034
:1042A00040190020B0180020A31900207419002024
:1042B000751900207A190020300000202E000020FF
:1042C00034000020DA1800209D1900200219002077
:1042D000E2180020E4180020360000202A00002008
:1042E00078190020E81800207B1900207C19002094
:1042F00008190020D8180020421900209C1900201D
:104300002C000020E6180020901900204200002018
:104310007D1900203A000020E01800200004004031
:104320003200002087190020991900206B19002005
:10433000002203881A00A34B98420ED0A74B984244
:104340000BD0B0F1804F08D09F4B984205D09F4BC7
:10435000984202D09E4B984204D14FF68F731A4078
:104360004B881A439B4B984207D09B4B984204D0F2
:104370004FF6FF431A400B891A4302804B68C36211
:104380000B8803858F4B984202D0944B984201D101
:104390008B7A03860123838270470185828270476E
:1043A00041627047406A7047C9B2002904D0028850
:1043B00052F00102028004E002884FF6FE731A40B8
:1043C0000280704770B4002300240022058C4FF651
:1043D000FE7635400584058C2C0085882A00058BE7
:1043E0002B004FF68F752B404FF6FC752B400D8838
:1043F0002B434FF6FD752C408D892C434D882C4363
:10440000704DA84202D0754DA84213D14FF6F775F2
:104410002C40CD892C434FF6FB752C408D882C43C6
:104420004FF6FF652A404FF6FF552A400D8A2A4372
:104430004D8A2A43828003838D684563048470BC5F
:10444000704770B4002300240022058C4FF6EF76ED
:1044500035400584058C2C0085882A00058B2B00AF
:1044600048F6FF752B404FF6FF452B400D8853EA69
:1044700005234FF6DF752C408D8954EA05144D88CD
:1044800054EA05144F4DA84202D0544DA84217D10A
:104490004FF67F752C40CD8954EA05144FF6BF7551
:1044A0002C408D8854EA05144FF6FF352A404FF210
:1044B000FF752A400D8A52EA85024D8A52EA85022A
:1044C000828003838D688563048470BC704770B4F8
:1044D000002300240022058C4FF6FF66354005843A
:1044E000058C2C0085882A00858B2B004FF68F7554
:1044F0002B404FF6FC752B400D882B434FF6FF5594
:104500002C408D8954EA05244D8854EA05242D4D0C
:10451000A84202D0314DA84217D14FF2FF752C406E
:10452000CD8954EA05244FF6FF352C408D8854EA96
:1045300005244EF6FF752A404DF6FF752A400D8A78
:1045400052EA05124D8A52EA0512828083838D68F1
:10455000C563048470BC704770B40023002400223B
:10456000058C4EF6FF7635400584058C2C00858839
:104570002A00858B2B0048F6FF752B404FF6FF4530
:104580002B400D8853EA05234DF6FF752C408D898D
:1045900054EA05344D8854EA05340A4DA84202D045
:1045A0000E4DA84205D14BF6FF752A400D8A52EAFE
:1045B0008512828083838D680564048470BC704793
:1045C000000000000000014000040040000800401E
:1045D000000C0040001000400014004000040140A6
:1045E0004163704781637047C16370470022038B4A
:1045F0001A004FF6F7731A400A43028370470022ED
:10460000038B1A004FF2FF731A4052EA0122028311
:1046100070470022838B1A004FF6F7731A400A4343
:10462000828370470022838B1A004FF2FF731A4077
:1046300052EA012282837047D2B2002A03D08389D2
:104640000B43838102E083898B438381704730B4BD
:104650000200002000230024158A0D402B009589BC
:104660000D402C009BB2002B05D0A4B2002C02D030
:104670000125280001E000252800C0B230BC7047A9
:1046800089B2CA4302827047F0B40022002300249A
:1046900000252A00102A4AD2012595402B000D68DA
:1046A0001D402C009C4240D1056803261700FFB234
:1046B0007F00BE40B543056005680E791700FFB264
:1046C0007F00BE40354305600D79012D02D00D7984
:1046D000022D1AD1856803261700FFB27F00BE4065
:1046E000B543856085684E791700FFB27F00BE40F4
:1046F00035438560456801269640B5434560456869
:104700008E799640B6B235434560C56803261700DA
:10471000FFB27F00BE40B543C560C568CE791700C3
:10472000FFB27F00BE403543C560521CB2E7F0BC0B
:10473000704702000020136989B20B4202D00123A6
:10474000180001E000231800C0B2704701837047D1
:1047500041837047F0B400230024D2B211F0070562
:10476000EDB2AD0012FA05F52B0089B2CD1010EBB9
:10477000850589B2CE1010EB8606366A0F2711F038
:10478000070C5FFA8CFC5FEA8C0C17FA0CF7BE433F
:104790002E6289B2CD1010EB85052D6A1D432C00C9
:1047A00089B2CD1010EB85052C62F0BC704700007B
:1047B00000212D4A11008279002A36D02A4A126837
:1047C00003689A43284B1A60284A126803689A4380
:1047D000264B1A60027989180A6803681A430A602E
:1047E000234A126803689A43214B1A60214A1268CF
:1047F00003689A431F4B1A604279102A0CD11C4A55
:10480000126803681A431A4B1A601A4A126803683E
:104810001A43184B1A600EE0134A110042798918A6
:104820000A6803681A430A6005E0027989180A6871
:1048300003689A430A6070470100002000220A4B77
:104840001B680B401A000C4B1B680B4204D0002A5B
:1048500002D00123180001E000231800C0B2704705
:104860000549086070470000003C0140043C0140DD
:10487000083C01400C3C0140143C014010B50400D0
:10488000DFF8C00484420AD101215FF0007000F01B
:1048900098FA00215FF0007000F093FA09E001211E
:1048A0005FF0806000F08DFA00215FF0806000F022
:1048B00088FA10BD30B4020000200023146834F0E0
:1048C00002041460146854F0010414605468E4078E
:1048D00005D44FF6FF74A34201D05B1CF6E7546881
:1048E000E40702D4002420006DE08C79012C04D16F
:1048F000146854F08004146003E0146834F08004F9
:104900001460CC79012C04D1146854F04004146074
:1049100003E0146834F0400414600C7A012C04D1D4
:10492000146854F02004146003E0146834F0200488
:1049300014604C7A012C04D1146854F010041460F3
:1049400003E0146834F0100414608C7A012C04D154
:10495000146854F00804146003E0146834F0080488
:104960001460CC7A012C04D1146854F0040414604F
:1049700003E0146834F0040414608C78CD782D06BC
:1049800055EA84740D7954EA05444D7954EA055486
:104990000D886D1E2C43D461146864086400146093
:1049A000002423005468E40705D54FF6FF74A342A2
:1049B00001D05B1CF6E75468E40702D50024200010
:1049C00001E001242000C0B230BC704710B40021C7
:1049D0000122837A9A401100DFF86C23126852F0AA
:1049E0000102DFF864331A60DFF8602312688A433B
:1049F000DFF858331A60027B002A19D1DFF8502300
:104A000012688A43DFF848331A60C288438853EA41
:104A10000242DFF84033847A43F83420DFF834234D
:104A2000837A12EBC3028388048854EA03435360F9
:104A3000027B012A19D1DFF8182312680A43DFF834
:104A400010331A600288438853EA0242DFF80433C5
:104A5000847A43F83420DFF8FC22837A12EBC30215
:104A60008388C48854EA03435360C27A002A07D17A
:104A7000DFF8E42212688A43DFF8DC321A6006E0CD
:104A8000DFF8D42212680A43DFF8CC321A600289B8
:104A9000002A06D1DFF8C42212688A43DFF8BC324C
:104AA0001A600289012A06D1DFF8B02212680A438F
:104AB000DFF8A8321A60427B012A06D1DFF88C2287
:104AC00012680A43DFF884321A60DFF87C22126829
:104AD00052085200DFF870321A6010BC704730B4D0
:104AE0000200002093685B0102D5002318000DE04E
:104AF00093681B0102D50123180007E09368DB00CF
:104B000002D50223180001E004231800C0B20428D3
:104B100075D0C0B212EB0013D3F8803113F001034B
:104B2000C0B212EB0014C4F880310B7A002B0FD105
:104B3000C0B212EB0013D3F880310C684D7A55EAFD
:104B400044542343C0B212EB0014C4F8803110E087
:104B5000C0B212EB0013D3F880314C680D7A55EADD
:104B6000C4044D7A2C432343C0B212EB0014C4F8A2
:104B700080318B7A13F00F038B72C0B212EB0013EB
:104B8000D3F884311B091B01C0B212EB0014C4F826
:104B90008431C0B212EB0013D3F884318C7A2343F2
:104BA000C0B212EB0014C4F884318B7B4C7B24041C
:104BB00054EA03630C7B53EA0423CC7A2343C0B248
:104BC00012EB0014C4F888318B7C4C7C240454EA2A
:104BD00003630C7C53EA0423CC7B2343C0B212EB67
:104BE0000014C4F88C31C0B212EB0013D3F880313A
:104BF00053F00103C0B212EB0014C4F88031C0B20C
:104C000030BC7047C9B210EB0113D3F8B03113F0C8
:104C100004031372137A002B07D1C9B210EB0113EE
:104C2000D3F8B0315B0D136006E0C9B210EB01138D
:104C3000D3F8B031DB085360C9B210EB0113D3F8DD
:104C4000B03113F002035372C9B210EB0113D3F861
:104C5000B43113F00F039372C9B210EB0113D3F800
:104C6000B4311B0AD374C9B210EB0113D3F8B831B5
:104C7000D372C9B210EB0113D3F8B8311B0A137306
:104C8000C9B210EB0113D3F8B8311B0C5373C9B27E
:104C900010EB0113D3F8B8311B0E9373C9B210EBAC
:104CA0000113D3F8BC31D373C9B210EB0113D3F89D
:104CB000BC311B0A1374C9B210EB0113D3F8BC3119
:104CC0001B0C5374C9B210EB0113D3F8BC311B0E8B
:104CD0009374C9B2002904D1C36853F02003C360A0
:104CE00003E0036953F020030361704702000020D2
:104CF000C9B2002904D1D36813F00303180009E0F6
:104D0000C9B2012904D1136913F00303180001E0AB
:104D100000231800C0B27047010000208A6912F019
:104D200070021000C0B27047010000208A69120EA4
:104D30001000C0B27047010000208A69120C1000F8
:104D4000C0B2704700640040006600401C6600402E
:104D50000C66004040660040046600401466004057
:104D6000002848BF40427047C9B2002905D01C4AFC
:104D7000126802431A4B1A6004E0194A126882430F
:104D8000174B1A607047C9B2002905D0154A12683E
:104D90000243144B1A6004E0124A12688243114B1A
:104DA0001A607047C9B2002905D00F4A1268024341
:104DB0000D4B1A6004E00C4A126882430A4B1A60D9
:104DC0007047C9B2002905D0084A12680243074B50
:104DD0001A6004E0054A12688243044B1A60704767
:104DE0003038024040380240443802402038024007
:104DF00080B501211020FFF7B7FF4FF6FF70DFF8F5
:104E0000AC1E08600020DFF8A41E08710020DFF847
:104E10009C1E88710320DFF8941E48710020DFF883
:104E20008C1EC871DFF8841EDFF8C00EFFF72CFC63
:104E300001212020FFF798FF4FF6FF70DFF86C1E6E
:104E400008600020DFF8641E08710020DFF85C1E97
:104E500088710320DFF8541E48710020DFF84C1ED3
:104E6000C871DFF8481EDFF8880EFFF70DFC01213E
:104E70000820FFF779FF4FF6FF70DFF8301E08605B
:104E80000120DFF8281E08710020DFF8201E88713D
:104E90000320DFF8181E48710020DFF8101EC871CB
:104EA000DFF8081EDFF84C0EFFF7EEFB0121402073
:104EB000FFF75AFF4FF47050DFF8F01D0860012033
:104EC000DFF8E81D08710020DFF8E01D887103207D
:104ED000DFF8D81D48710020DFF8D01DC871DFF859
:104EE000CC1DDFF8140EFFF7CFFB01218020FFF768
:104EF0003BFF41F60840DFF8B41D08600120DFF8F1
:104F0000AC1D08710020DFF8A41D88710320DFF8B4
:104F10009C1D48710020DFF8941DC871DFF88C1DBE
:104F2000DFF8D80DFFF7B0FB4FF40061DFF8CC0DD0
:104F3000FFF70EFC4FF48061DFF8C00DFFF708FCAF
:104F400001210220FFF710FF0020DFF8B41D0860E8
:104F5000DFF8AC0D0068B0F57A4F15D2DFF8A00D80
:104F60000068401CDFF8981D0860DFF8940D0068A9
:104F7000401EDFF88C1D0860DFF8840D0068401CBF
:104F8000DFF87C1D0860E3E70020DFF8781D08608B
:104F9000DFF8700D0068DFF8701D88420BD2022028
:104FA000DFF8681D0860DFF85C0D0068401CDFF862
:104FB000541D0860ECE740F21450DFF8B41EC1F84D
:104FC00090010020DFF8A81EC1F8940141F2707032
:104FD000DFF89C1EC1F8980140F23520DFF8901EE2
:104FE000C1F89C0140F61D20DFF8841EC1F8B8010D
:104FF0000020DFF87C1EC1F8BC0142F6E060DFF85B
:10500000701EC1F8C00140F26440DFF8641EC1F8B0
:10501000C40140F61D20DFF8581EC1F8E00140F23F
:10502000C620DFF84C1EC1F8E401DFF8480EDFF8B7
:10503000401EC1F8E80140F26440DFF8341EC1F8B8
:10504000EC0140F61D20DFF8281EC1F8080240F2EE
:105050008250DFF81C1EC1F80C02DFF81C0EDFF8CE
:10506000101EC1F8100240F26440DFF8041EC1F8BF
:10507000140240F61D20DFF8F81DC1F8300240F29E
:10508000FE60DFF8EC1DC1F83402DFF8F00DDFF848
:10509000E01DC1F8380240F26440DFF8D41DC1F8C9
:1050A0003C0240F61D20DFF8C81DC1F858026420FC
:1050B000DFF8BC1DC1F85C02DFF8C40DDFF8B01DDD
:1050C000C1F8600240F26440DFF8A41DC1F8640238
:1050D00040F61D20DFF8981DC1F880024FF4A5604E
:1050E000DFF88C1DC1F88402DFF8D00DDFF8801DD9
:1050F000C1F8880240F26440DFF8741DC1F88C02E8
:1051000040F61D20DFF8681DC1F8A80240F25E607D
:10511000DFF85C1DC1F8AC02DFF8A40DDFF8501D0C
:10512000C1F8B00240F26440DFF8441DC1F8B40297
:105130000020DFF83C1DC1F8D0020020DFF8301D50
:10514000C1F8D4020020DFF8281DC1F8D8020020E1
:10515000DFF81C1DC1F8DC024FF4B970DFF8101D38
:10516000C1F820034FF48C70DFF8041DC1F824034C
:10517000DFF8500DDFF8F81CC1F8280340F23520A5
:10518000DFF8EC1CC1F82C030020DFF8E41CC1F8A8
:1051900030030020DFF8D81CC1F834034FF4B97095
:1051A000DFF8CC1CC1F848034FF48C70DFF8C01C4A
:1051B000C1F84C034AF6C870DFF8B41CC1F85003BC
:1051C00040F23520DFF8A81CC1F854030120DFF8B5
:1051D000A01CC1F858034FF4B970DFF8941CC1F853
:1051E00070034FF4A570DFF8881CC1F87403DFF872
:1051F000D80CDFF87C1CC1F8780340F25640DFF889
:10520000701CC1F87C030120DFF8641CC1F8800326
:105210004FF4B970DFF8581CC1F898034FF4D770F9
:10522000DFF84C1CC1F89C03DFF8A00CDFF8401C31
:10523000C1F8A00340F25640DFF8341CC1F8A403C3
:105240000120DFF82C1CC1F8A8034FF4B970DFF877
:10525000201CC1F8C0034FF40770DFF8141CC1F81C
:10526000C403DFF86C0CDFF8081CC1F8C80340F277
:105270005640DFF8FC1BC1F8CC030120DFF8F01B1F
:10528000C1F8D0034FF4B970DFF8E41BC1F8E803AC
:105290006420DFF8DC1BC1F8EC03DFF8380CDFF822
:1052A000D01BC1F8F00340F25640DFF8C41BC1F830
:1052B000F4030120DFF8B81BC1F8F8034FF4B9700C
:1052C000DFF8AC1BC1F810044FF4D770DFF8A01B57
:1052D000C1F81404DFF8000CDFF8941BC1F81804BF
:1052E00040F25640DFF8881BC1F81C040120DFF8AB
:1052F000801BC1F820044FF4B970DFF8741BC1F8AB
:1053000038044FF40770DFF8681BC1F83C04DFF87D
:10531000CC0BDFF85C1BC1F8400440F25640DFF8CC
:10532000501BC1F844040120DFF8441BC1F84804B5
:105330004FF4B970DFF8381BC1F860040020DFF8C3
:10534000301BC1F86404DFF8980BDFF8241BC1F8A8
:10535000680440F25640DFF8181BC1F86C040120C5
:10536000DFF80C1BC1F870044FF4B970DFF8001BB4
:10537000C1F888040020DFF8F81AC1F88C04DFF8BF
:10538000640BDFF8EC1AC1F8900440F25640DFF8E5
:10539000E01AC1F894040020DFF8D41AC1F8980488
:1053A00001F0C6FB01F060FC01F094FD01F0CDFDC1
:1053B00001F006FE01F03EFE01F076FE01F0AEFEC9
:1053C00001F0E6FE01F028FD01F03BFD01F0FAFCE2
:1053D00001F00DFD4FF40061DFF82009FFF7B8F987
:1053E0004FF48061DFF81409FFF7B2F94FF6FF7050
:1053F000DFF8F41A48600020DFF8EC1A088000207B
:10540000DFF8E41A08810020DFF8DC1A4880DFF8B2
:10541000D81ADFF8D80AFEF78BFF0320DFF8D01A7E
:1054200008800122DFF8C80A0188DFF8C00AFEF709
:10543000B4FF0020DFF8BC1A08800120DFF8B41A9E
:105440004880DFF8B40A0088DFF8A81A88600020D6
:10545000DFF8A01A8881DFF89C1ADFF8900AFEF7BF
:10546000B1FF0021DFF8840AFFF7C0F80020DFF861
:10547000841A08800120DFF87C1A48800120DFF8B8
:10548000741A48800020DFF86C1A8881DFF86C0AF3
:105490000088DFF8601A8860DFF8581ADFF84C0AD5
:1054A000FEF7CFFF0021DFF8440AFFF7A8F800203D
:1054B000DFF8401A08800120DFF8381A4880012000
:1054C000DFF8301A48800020DFF8281A8881DFF8DA
:1054D000300A0088DFF81C1A8860DFF8181ADFF835
:1054E0000C0AFEF7F4FF0021DFF8000AFFF791F83D
:1054F0000120DFF8001A4880DFF8080A0088DFF88A
:10550000F4198860DFF8EC19DFF8E009FFF724F8F8
:105510000021DFF8D809FFF785F84FF6FF70DFF8B4
:10552000C81948600020DFF8C01908800020DFF8A3
:10553000B81908810020DFF8B0194880DFF8A819F1
:10554000DFF8C409FEF7F4FE0320DFF8A419088091
:105550000122DFF89C090188DFF8AC09FEF71DFF86
:105560000020DFF8901908800120DFF888194880B2
:10557000DFF898090088DFF87C1988600020DFF8E0
:1055800074198881DFF86C19DFF87C09FEF71AFFBF
:105590000021DFF87409FFF729F80020DFF854191B
:1055A00008800120DFF84C1948800120DFF84419F9
:1055B00048800020DFF83C198881DFF85409008812
:1055C000DFF830198860DFF82C19DFF83C09FEF7A6
:1055D00038FF0021DFF83009FFF711F80020DFF86D
:1055E000141908800120DFF80C1948800120DFF829
:1055F000041948800020DFF8FC188881DFF81409BE
:105600000088DFF8F0188860DFF8E818DFF8F8089D
:10561000FEF75DFF0021DFF8F008FEF7FAFF01203A
:10562000DFF8D0184880DFF8F0080088DFF8C418E9
:105630008860DFF8C018DFF8D008FEF78DFF002182
:10564000DFF8C408FEF7EEFF01220221DFF89C0814
:10565000FEF7F2FF01220221DFF8AC08FEF7ECFFB3
:105660000121DFF88808FEF79FFE0121DFF8980886
:10567000FEF79AFE4FF6FF70DFF86C1848600020C6
:10568000DFF8641808800020DFF85C18088100202B
:10569000DFF854184880DFF850185FF08040FEF7BC
:1056A00047FE0120DFF8481808800122DFF8400893
:1056B00001885FF08040FEF770FE0020DFF83418AC
:1056C00008800120DFF82C184880DFF85008008897
:1056D000DFF8201888600020DFF818188881DFF8CC
:1056E00014185FF08040FEF76DFE00215FF08040EF
:1056F000FEF77CFF0020DFF8FC1708800120DFF8B0
:10570000F4174880DFF818080088DFF8E817886089
:105710000020DFF8E0178881DFF8D8175FF08040BD
:10572000FEF78FFE00215FF08040FEF768FF00204B
:10573000DFF8C01708800120DFF8B8174880DFF8CD
:10574000E4070088DFF8AC1788600020DFF8A417B2
:105750008881DFF8A0175FF08040FEF7B8FE0021D7
:105760005FF08040FEF755FF4FF6FF70DFF87817C7
:1057700048600020DFF8701708800020DFF8681705
:1057800008810020DFF860174880DFF85C17DFF839
:105790009807FEF7CDFD0120DFF85417088001229D
:1057A000DFF84C070188DFF88007FEF7F6FD0020E0
:1057B000DFF8401708800120DFF838174880DFF84D
:1057C0006C070088DFF82C1788600020DFF82417AA
:1057D0008881DFF82017DFF85007FEF7F3FD00217E
:1057E000DFF84407FEF702FF0020DFF80817088003
:1057F0000120DFF800174880DFF834070088DFF861
:10580000F41688600020DFF8EC168881DFF8E416D3
:10581000DFF81407FEF715FE0021DFF80C07FEF78E
:10582000EEFE4FF6FF70DFF8C01648600020DFF88C
:10583000B81608800020DFF8B01608810020DFF8D5
:10584000A8164880DFF8A016DFF8E806FEF770FD1E
:105850000120DFF89C1608800122DFF894060188F9
:10586000DFF8D006FEF799FD0020DFF888160880E3
:105870000120DFF880164880DFF8BC060088DFF8DA
:10588000741688600020DFF86C168881DFF86416D3
:10589000DFF8A006FEF796FD0021DFF89806FEF778
:1058A000A5FE01220E215FF08040FEF7C5FE012219
:1058B0000621DFF87406FEF7BFFE01215FF080408D
:1058C000FEF772FD0121DFF86006FEF76DFD4FF473
:1058D0000061DFF82804FEF73BFF4FF48061DFF83A
:1058E0001C04FEF735FFDFF854060078012840F06D
:1058F0002482DFF8000E0078002840F01E82DFF8D6
:1059000040060078002840F01882DFF8380600785A
:10591000182840F00681DFF83006006845F20921BA
:10592000884207D3DFF824060078401CDFF81C16F5
:10593000087003E00020DFF814160870DFF80C068A
:10594000007813280CDBDFF80806DFF8AC1D0860D0
:105950000120DFF8A01D08700720DFF8F815087097
:10596000DFF8940D006842F2293188422FD3DFF826
:10597000D005007800282AD1DFF8800D008840F299
:105980005331884205DADFF8740D0088B0F5167FD0
:1059900007DADFF8C4050078401CDFF8BC15087092
:1059A00003E00020DFF8B0150870DFF8AC050078E0
:1059B0000D280CDBDFF89805DFF83C1D086001209E
:1059C000DFF8301D08700820DFF888150870DFF850
:1059D000280D006841F289318842C0F0A280DFF8CA
:1059E00060050078002840F09C80DFF8000E0088F9
:1059F000B0F5967F04DCDFF8F40D0088C82807DADC
:105A0000DFF858050078401CDFF85015087003E0F7
:105A10000020DFF848150870DFF8400500780D28F1
:105A20000CDBDFF82C05DFF8D01C08600120DFF864
:105A3000C41C08700920DFF81C150870DFF8100E70
:105A4000008840F28321884207DBDFF814050078E4
:105A5000401CDFF80C15087003E00020DFF800158B
:105A60000870DFF8FC04007807280CDBDFF8E0049E
:105A7000DFF8841C08600120DFF8781C08700A2019
:105A8000DFF8D0140870DFF8CC0D0088B0F5CB7FBC
:105A900005DADFF8C00D0088B0F5967F07DADFF889
:105AA000C4040078401CDFF8BC14087003E0002038
:105AB000DFF8B0140870DFF8AC0400780D280CDBB8
:105AC000DFF88C04DFF8301C08600120DFF8241CAC
:105AD00008700520DFF87C140870DFF8100E0088CD
